:020000040800F2
:10000000D859002045010008931C0008D71A0008A1
:10001000911C0008A90300082D230008000000001F
:10002000000000000000000000000000F11E0008B9
:10003000E303000800000000951C0008F31E000800
:100040005F0100085F0100085F0100085F01000810
:100050005F0100085F0100085F0100085F01000800
:100060005F0100085F0100085F0100085F010008F0
:100070005F0100085F0100085F010008AD03000890
:100080005F0100085F0100085F0100085F010008D0
:100090005F0100085F0100085F0100085F010008C0
:1000A0005F0100085F0100085F0100085F010008B0
:1000B000551F00085F0100085F0100085F0100088C
:1000C0005F0100085F0100085F0100085F01000890
:1000D0005F010008692200085F0100085F01000855
:1000E0005F0100085F0100085F0100085F01000870
:1000F0005F0100085F0100085F0100085F01000860
:100100005F0100085F0100085F0100085F0100084F
:100110005F0100085F0100085F0100085F0100083F
:100120005F0100085F0100085F0100085F0100082F
:10013000DFF80CD000F09AF8004800478554010819
:10014000D85900200648804706480047FEE7FEE7EA
:10015000FEE7FEE7FEE7FEE7FEE7FEE7FEE7FEE777
:10016000511F000831010008D2B201E000F8012B54
:10017000491EFBD270470022F6E710B513460A4627
:1001800004461946FFF7F0FF204610BD421C10F848
:10019000011B0029FBD1801A704710B5002200E036
:1001A000521C835C8C5CA34201D1002BF8D1D8B2E5
:1001B000E1B2401A10BD30B504460020034600E00D
:1001C0005B1C934203D2E05CCD5C401BF8D030BD99
:1001D000034611F8012B00F8012B002AF9D118462B
:1001E000704770B5064602F0B3F8046805460A2267
:1001F0000021304600F002F82C6070BD2DE9F04778
:1002000091460F4680460446002614F8015B2DB146
:1002100000F03EF80068405DC007F6D12B2D02D0FB
:100220002D2D18D0641E4A463946204600F034F879
:1002300027B13968A14201D1C7F8008071054FF09C
:1002400002040BD54042002803DD02F081F804606F
:10025000A007BDE8F08746F48066E4E70028F8DAF6
:1002600002F076F804606FF00040F2E7064C074DAC
:1002700006E0E06840F0010394E807009847103476
:10028000AC42F6D3FFF758FF68B9010888B90108F6
:100290000048704710B901082DE9F05F82460078E8
:1002A000002715468B460AF10104B946302801D0D3
:1002B0009DB113E014F8010B0127782803D05828CA
:1002C00001D045B10AE00DB1102D07D1002710254E
:1002D00014F8010B02E0082500E00A250026B046CC
:1002E0000EE005FB080005FB06F1012701EB1046B7
:1002F0001FFA80F8B6F5803F00D3B94614F8010B19
:10030000294600F018F80028EBDABBF1000F05D001
:100310000FB1641E00E05446CBF80040B9F1000F65
:1003200006D002F015F802210160C81EBDE8F09F5A
:1003300048EA0640FAE73A2800D2303820F0200296
:10034000412A01D3A2F13700884201D34FF0FF3098
:10035000704770B58C1810F8015B15F0070301D1D8
:1003600010F8013B2A1106D110F8012B03E010F818
:10037000016B01F8016B5B1EF9D12B0705D400233B
:10038000521E0DD401F8013BFAE710F8013BCB1ADD
:10039000921C03E013F8015B01F8015B521EF9D5D2
:1003A000A142D8D3002070BDFEE70000014800F054
:1003B000D5B800003802002030B590F84050012434
:1003C000AC40C56B6C60046863604368102B0368C5
:1003D00003D099600068C26030BD9A600068C16057
:1003E00030BD7047704710B590F8211000220229E7
:1003F00005D00421816380F82020012010BD016810
:100400000B6823F00E030B6001680B6823F00103F7
:100410000B6090F84030C46B012101FA03F3636074
:1004200080F8211080F82020104610BD2DE9F05FE3
:1004300090F821100024022903D0042181630124B3
:1004400085E001680A6822F00E020A6001680A6805
:1004500022F001020A603F4E3E4FB215DFF8F4C0B1
:10046000DFF8F090DFF8ECA0DFF8E8B0DFF8E4E0C8
:100470000168783F13011502ACF1640CA9F1500931
:10048000AAF13C0AABF1280BAEF1140E4FF4801820
:10049000B14227D9B9420ED0614512D049451DD08D
:1004A000514518D0594518D0714501D1424615E043
:1004B000294EB14201D1012210E0274E1436B1423B
:1004C00001D110220AE0244E2836B14206D0224A39
:1004D0003C32914201D11A4600E02A461E49091FCA
:1004E0000A602BE0B94213D0614517D0494522D0AC
:1004F00051451DD059451DD0714501D142461AE0E4
:10050000B14202D14FF0807215E0134EB14201D1D9
:10051000012210E0104E1436B14201D110220AE03F
:100520000D4E2836B14206D00B4A3C32914201D1E1
:100530001A4600E02A46074980394A60012180F8BE
:100540002110002180F82010416B01B1884720461E
:10055000BDE8F09F80000240080402402DE9F05FF2
:10056000C16B0A6801680B68046C4FF0040808FA54
:1005700004F8844D844E854FDFF814C2DFF81492DE
:10058000DFF814A2DFF814B2DFF814E218EA020F61
:1005900065D05FEA437862D50A68920603D40A6898
:1005A00022F004020A60DFF8F0814FF480620168F3
:1005B00008F1140813011402414524D9A9420DD0B1
:1005C000B1420FD0B9421AD0614515D0494515D076
:1005D000514501D1120312E0594501D104220EE028
:1005E000714501D140220AE06D4D1435A94206D073
:1005F0006B4A2832914201D11A4600E022466749EF
:10060000091F0A6029E0A94213D0B14215D0B942AE
:1006100020D061451BD049451BD0514502D14FF434
:10062000800217E0414502D14FF0806212E0594547
:1006300001D104220EE0714501D140220AE0584D5B
:100640001435A94206D0564A2832914201D11A46A1
:1006500000E022464B4908394A60C16A71E04FF018
:10066000020808FA04F818EA020F70D05FEA8378EB
:100670006DD50A68920606D40A6822F00A020A605A
:10068000012180F82110DFF810814FF40072016819
:1006900008F1140813011402414524D9A9420DD0D0
:1006A000B1420FD0B9421AD0614515D0494515D095
:1006B000514501D1120312E0594501D102220EE049
:1006C000714501D120220AE0354D1435A94206D0EA
:1006D000334A2832914201D11A4600E022462F497E
:1006E000091F0A6029E0A94213D0B14215D0B942CE
:1006F00020D061451BD049451BD0514502D14FF454
:10070000001217E0414502D14FF0007212E0594546
:1007100001D102220EE0714501D120220AE0204DD4
:100720001435A94206D01E4A2832914201D11A46F8
:1007300000E02246134908394A60002180F8201061
:10074000816A00291CD0BDE8F05F0847FFE7082553
:10075000A540154214D01A0712D50A6822F00E02DD
:100760000A6090F84020C36B012101FA02F25A603E
:10077000816380F82110002180F82010016BE0E7F0
:10078000BDE8F09F080002401C000240300002401B
:1007900044000240580002406C000240080402403D
:1007A0001C04024030B560B11A4B026814219A4211
:1007B00009D2194B1344B3FBF1F1890001641749C5
:1007C0000AE0012030BD134B5B421344B3FBF1F14F
:1007D000890001640F490839C163022180F82110A2
:1007E000136843F6F0718B43F0E901142143D0E91B
:1007F00002452C4321430469214344692143846910
:10080000214319431160002141630122427701779E
:10081000084630BD08040240F8FFFDBF000002405A
:1008200070B5044690F82000002501280CD0012066
:1008300084F8200094F821600020012E06D084F86E
:1008400020000225284670BD022070BD022684F8D3
:100850002160A0632068066826F001060660204635
:10086000FFF7AAFDE06A00282068016802D041F085
:100870000E0106E021F0040101602068016841F0EA
:100880000A0101602068016841F001010160D9E7B7
:1008900070B5044600F014F90546601C02D0044807
:1008A0000078044400F00CF9401BA042FAD370BD5C
:1008B0000C0000202DE9F84FDFF8C891002409F161
:1008C000040A0AF1040B23460F270BF1040ED1E0B2
:1008D0000125A54006EA0502AA4276D1DFF8A8C1A3
:1008E0004E68A6EB0C0866452BD00DDC032E34D0E9
:1008F00005DC36B3012E19D0022E2FD11BE0112EAC
:1009000016D0122E2AD119E0B8F5881F19D006DCAE
:10091000B8F5803F15D0B8F5801F1FD111E0B8F5AC
:10092000001F0ED0B8F5041F18D10AE0CB6815E0FF
:10093000CB681B1D12E0CB6808330FE0CB680C338B
:100940000CE08B682BB1012B4FF0080303D04561FD
:1009500004E0042302E0056100E00023FF2A01D83F
:10096000064601E000F104064FEA840501D9A5F12D
:100970002005D6F8008007FA05FC28EA0C0803FADF
:1009800005F548EA0508C6F800804D68ED0070D509
:100990003E4DAE6946F00106AE61AD6924F0030636
:1009A00005F0010500953A4D06EB050CDCF8085002
:1009B000A607360F07FA06F825EA0805DFF8D480FF
:1009C000404503D14FF0000825E052E0DFF8C88031
:1009D000404502D14FF001081DE0DFF8C0804045DE
:1009E00002D14FF0020816E0DFF8B480404502D192
:1009F0004FF003080FE0DFF8AC80404502D14FF024
:100A0000040808E0DFF8A080404502D14FF0050857
:100A100001E04FF0060808FA06F848EA0508CCF8A5
:100A200008804D68D9F80060ED034D4601D51643A6
:100A300000E096432E604D68DAF80060AD0355463D
:100A400001D5164300E096432E604D68DBF8006048
:100A5000ED025D4601D5164300E096432E604D68D9
:100A6000DEF80060AD02754601D5164300E09643FE
:100A70002E60641C0A681646E2407FF429AFBDE888
:100A8000F88F000000040140000011100010024027
:100A90000000014000080140000C0140001001402E
:100AA0000014014000180140001C0140806808400B
:100AB00000D0012070470AB1016170470904FBE7CB
:100AC00001488068704700000C00002002488168DF
:100AD00002781144816070470C000020074810B56F
:100AE000016841F010010160032000F077F8002058
:100AF00000F006F800F024F8002010BD00200240AD
:100B000070B50D4D04464FF47A712878B1FBF0F0C2
:100B10000A490968B1FBF0F000F029FC48B9102C33
:100B200007D200222146501E00F038F800206C60E9
:100B300070BD012070BD00000C00002018000020D6
:100B40000D4808B5816941F001018161816901F0B9
:100B500001010091C16941F08051C161C06900F09B
:100B600080500090042000F039F80448416821F0DA
:100B7000E061416008BD000000100240000001403B
:100B8000002809DB00F01F0201219140400980008C
:100B900000F1E020C0F8001170470000F0B40E4BE7
:100BA0001B680C46C3F30223C3F10705042D00D9CB
:100BB0000425191D072901D2002300E0DB1E0126B0
:100BC00006FA05F1491E214099409E40761E1640C6
:100BD0003143F0BC01F0ABBB0CED00E0064900F086
:100BE000070208684FF6FF03184040EA0220034A54
:100BF00010430860704700000CED00E00000FA05AB
:100C00002DE9F0470F46050061D0434E306800F0F3
:100C10000700B84209D2306820F00700384330603E
:100C2000306800F00700B84251D128683B4C81077A
:100C300012D5400703D5606840F4E0606060287812
:100C4000000703D5606840F4605060606068A96880
:100C500020F0F000084360602878C00728D068685A
:100C6000012810D02168022810D0890700292EDA27
:100C7000616821F0030101436160FFF721FF8046B5
:100C800041F288390DE021688903EFE78901EDE73A
:100C9000FFF716FFA0EB0801494502D90320BDE884
:100CA000F0876068696800F00C00B0EB810FEFD14D
:100CB000306800F00700B8420BD9306820F0070018
:100CC00038433060306800F00700B84201D001209E
:100CD000E5E72878400705D56068E96820F4E0601A
:100CE000084360602878000706D56068296920F409
:100CF000605040EAC100606000F038F86168084A5E
:100D0000C1F30311515CC8400649086006480068F9
:100D1000FFF7F6FE0020C2E700200240001002406C
:100D200088810108180000201000002004480549AF
:100D300000684968044AC1F30221515CC840704709
:100D4000180000200010024098810108044805495D
:100D500000684968044AC1F3C221515CC840704729
:100D600018000020001002409881010812A185B0EF
:100D70000FC98DE80F0014A0144A00680490516850
:100D8000134801F00C03042B10D0082B0ED1C1F333
:100D90008343C9031DF803000AD5516804AAC1F3AF
:100DA0004041515C0A4A5043B0FBF1F005B0704736
:100DB00008494843FAE7000002030405060708094A
:100DC0000A0B0C0D0E0F1010010200000010024063
:100DD00000127A0000093D002DE9F84F040070D0A0
:100DE0002078C04DC00749D06868C0F38100012851
:100DF00007D06868C0F38100022809D16868C00381
:100E000006D52868800339D560680028E7D035E02A
:100E10006068B0F5803F0BD010B1B0F5A02F11D0B5
:100E2000286820F480302860286820F4802002E0C0
:100E3000286840F480302860606890B1FFF740FE79
:100E400006460AE0286840F480202860F0E700BFEA
:100E5000FFF736FE801B642873D828688003F7D517
:100E60000CE0FFF72DFE064605E000BFFFF728FE69
:100E7000801B6428F0D828688003F7D420789A4E25
:100E800080074FF001094FF0000839D5686810F06D
:100E90000C0F07D06868C0F38100022809D1686888
:100EA000C00306D42868800714D52069012808D11A
:100EB00010E02069B0B1C6F80090FFF701FE0746C8
:100EC00005E00AE1FFF7FCFDC01B0228C4D8286832
:100ED0008007F7D52868616920F0F80040EAC10072
:100EE00028600DE0C6F80080FFF7EAFD074604E041
:100EF000FFF7E6FDC01B022823D828688007F7D437
:100F0000207800072CD57948A169D9B1C0F80090A4
:100F1000FFF7D6FD074604E0FFF7D2FDC01B02280D
:100F20000FD8686A8007F7D571484FF4FA51006806
:100F3000B0FBF1F0009000BF0098411E0091FAD282
:100F40000EE080E0C0F80080FFF7BAFD074604E03D
:100F5000FFF7B6FDC01B022875D8686A8007F7D472
:100F60002078400760D5E8690027C00008D4E86908
:100F700040F08050E861E869012700F0805000905F
:100F80005C480168C90513D40168834641F4807147
:100F90000160FFF795FD824606E000BFFFF790FD78
:100FA000A0EB0A0064284ED8DBF80000C005F5D598
:100FB000E06801280AD008B1052813D0286A20F07B
:100FC00001002862286A20F0040002E0286A40F04C
:100FD00001002862E06841F2883B98B1FFF770FD9C
:100FE00082460BE0286A40F004002862EEE700BF6A
:100FF000FFF766FDA0EB0A0159455AD8286A800719
:10100000F6D50CE0FFF75CFD824605E0FFF758FDE2
:10101000A0EB0A0159454CD8286A8007F6D41FB1C5
:10102000E86920F08050E861E06988B36968C1F33D
:101030008101022944D00228C6F8608004D0FFF75D
:101040003FFD044638E034E0FFF73AFD074604E090
:10105000FFF736FDC01B02282BD828688001F7D483
:10106000206AB0F5803F05D16868A16820F400309F
:1010700008436860D4E908010843696821F47411E1
:1010800008436860C6F86090FFF71AFD044606E062
:1010900025E000BFFFF714FD001B022809D82868CF
:1010A0008001F7D51BE000BFFFF70AFD001B0228F7
:1010B00002D90320BDE8F88F28688001F4D40EE03F
:1010C0000128F7D06868226A00F48031914204D187
:1010D000616A00F47010884201D00120EAE7002024
:1010E000E8E7000000100240000042428004424253
:1010F000180000200070004070B5040009D0606A3C
:10110000002540B125616561A56294F8510040B1A8
:101110000CE0012070BD6068B0F5827FF4D0E5611D
:10112000F2E784F85050204600F040F8022084F89E
:1011300051002068016821F040010160A0882189E8
:1011400000F4827001F404410843A18901F40061B4
:101150000843217C01F002010843217D01F00101D7
:101160000843218B01F400710843217F01F038010D
:10117000084394F8201001F080010843218D01F408
:101180000051084321680860A069042101EA104069
:10119000216848602068C16921F40061C16165650A
:1011A000012084F85100002070BD000000B585B01A
:1011B0000021009101910291039100680F4988423A
:1011C0001AD10F48816941F480518161816901F42C
:1011D00080510491816941F004018161806969460F
:1011E00000F004000490A020009002200190032051
:1011F00003900448FFF75EFB05B000BD00300140DE
:1012000000100240000801402DE9F84F044690F814
:10121000500000271D461646894601280DD04FF084
:10122000010B84F850B0FFF74BFC804694F8510056
:10123000BA46012804D0022793E00220BDE8F88FC7
:10124000B9F1000F73D0002E71D0032084F8510043
:10125000C4F854A0C4F83090A686E686C4F838A036
:10126000A4F83CA0A4F83EA0C4F844A0C4F840A050
:10127000A068B0F5004F09D12068016821F0400155
:1012800001602068016841F48041016020680168C4
:10129000490603D4016841F040010160E068B0F5FF
:1012A000006F606803D030B3012E24D041E008B154
:1012B000012E1CD1206B21680088C86006E02068E0
:1012C0008168890709D5216B0988C160206B801C62
:1012D0002063E08E401EE08609E0FFF7F1FBA0EB03
:1012E0000800A84202D3681C01D031E07DB3E08E33
:1012F0000028E4D120E0206B21680078087306E024
:1013000020688168890709D5216B09780173206BF2
:10131000401C2063E08E401EE0860AE0FFF7D0FB11
:10132000A0EB0800A84203D3681C02D010E017E02D
:101330006DB1E08E0028E3D142462946204600F0F8
:10134000AAFC08B120206065A06818B106E0FFE79C
:10135000032706E02068C16880680090606D00B1D6
:10136000012784F851B084F850A0384666E710B5DC
:10137000401EB0F1807F01D3012010BD4FF0E0246A
:1013800060610F21601700F0D2FF0020A0610720EC
:101390002061002010BD70477047000070B590F8C4
:1013A0003C20012A2CD0012480F83C40022280F805
:1013B0003D2003685A689D6822F070060A6832432F
:1013C0005A60104B02689A420ED00F4B9A420BD0D3
:1013D000B2F1804F08D00D4B9A4205D00C4B9A4287
:1013E00002D00C4B9A4204D1496825F0800319437E
:1013F000916080F83D40002180F83C10084670BDA7
:10140000022070BD002C0140003401400004004067
:1014100000080040000C004010B5040003D094F810
:101420003D0010B107E0012010BD002084F83C0011
:10143000204600F01FF8022084F83D00211D20689E
:1014400000F08EFD012084F8460084F83E0084F808
:101450003F0084F8400084F8410084F8420084F89A
:10146000430084F8440084F8450084F83D000020DF
:1014700010BD000008B50068B0F1804F12D10A48D5
:10148000C16941F00101C161C069002200F00100A1
:10149000009011461C20FFF781FBBDE808401C208E
:1014A000FFF76EBB08BD00000010024090F83D1031
:1014B000012901D001207047022180F83D10016808
:1014C000CA6842F00102CA6000680E4988420ED024
:1014D0000D4988420BD0B0F1804F08D00B498842AB
:1014E00005D00B49884202D00A49884204D181685C
:1014F00001F00701062903D0016841F001010160F4
:1015000000207047002C01400034014000040040DE
:1015100000080040000C004070B5044690F83C0004
:10152000012817D0012584F83C50022084F83D00A2
:101530002068826822F0770222F47F428260086885
:10154000502830D00DDC20284DD005DC98B3102871
:101550003BD148E0022070BD302844D0402834D12F
:1015600039E0602828D0702806D0B0F5805F2CD0F4
:10157000B0F5005F29D10AE0CB68D1E901212068EC
:1015800000F034FD2068816841F0770109E0CB6804
:10159000D1E90121206800F029FD2068816841F42B
:1015A0008041816011E0CA684968206800F030FD20
:1015B0005021206807E016E0CA684968206800F0FA
:1015C00038FD6021206800F01BFD84F83D500020AC
:1015D00084F83C0070BDCA684968206800F018FDB6
:1015E00040212068EFE7226801461046EBE770478C
:1015F00070B50446006801694FF00005C9438907CA
:1016000015D4C168C943890711D4E91E01610120BD
:101610002077206880698007204602D0FFF7E7FF27
:1016200004E000F098F8204600F096F8257720684E
:101630000169C943490717D4C168C943490713D48D
:101640006FF004010161022020772068806910F4A6
:10165000407F204602D0FFF7CAFF04E000F07BF88D
:10166000204600F079F8257720680169C943090709
:1016700016D4C168C943090712D46FF0080101618B
:10168000042020772068C0698007204602D0FFF739
:10169000AEFF04E000F05FF8204600F05DF825772B
:1016A00020680169C943C90617D4C168C943C9067E
:1016B00013D46FF010010161082020772068C06901
:1016C00010F4407F204602D0FFF791FF04E000F0C5
:1016D00042F8204600F040F8257720680169C943A8
:1016E000C90708D1C168C943C90704D1891E01616E
:1016F000204600F033F820680169C943090609D47F
:10170000C168C943090605D46FF080010161204614
:10171000FFF741FE20680169C943490609D4C16841
:10172000C943490605D46FF040010161204600F02D
:101730001DF820680169C94389060BD4C168C943F3
:10174000890607D46FF0200101612046BDE8704092
:10175000FFF722BE70BD7047704700000249884203
:1017600001D113F0BFBB7047B0010020704710B526
:1017700004460068416994F83920C1F3C011212A58
:101780000BD151B1416921F080014161206B08B159
:10179000FEF729FE204600F0BCFC2068416994F861
:1017A0003A20C1F38011222A0BD151B1416921F0B5
:1017B00040014161606B08B1FEF715FE204600F064
:1017C0009AFC002010BD704770B50268044610688E
:1017D000D168536910F00F0F52D003F0010501F4E6
:1017E00090762E435FD0C20705D0CA0503D5E26BC1
:1017F00042F00102E263420705D5DA0703D0E26B4B
:1018000042F00202E263820705D5DA0703D0E26BF9
:1018100042F00402E263020707D501F020022A43E6
:1018200003D0E26B42F00802E263E26B002A33D09D
:10183000800604D5880602D5204600F073FC206897
:101840004069E16BC0F38010090700D428B320463B
:1018500000F051FC2068416949061AD5416921F020
:1018600040014161606BA0B12D494163606BFEF79F
:10187000DDFD002810D0606B416BBDE8704008476B
:10188000830610D58B060ED52046BDE8704000F0CB
:1018900049BC2046FFF797FF70BD2046FFF793FF36
:1018A0000020E06370BD03062BD50B0629D594F804
:1018B00039002128F6D1A068B0F5805F01D12069F8
:1018C000B0B1206A411C2162216800784860E08C38
:1018D000401E0004000CE084E4D12068C16821F0BF
:1018E0008001C1602068C16841F04001C16070BDE5
:1018F000206A0088C0F308005060206A801C2062C3
:10190000E5E74006F3D54806F1D5D168204621F039
:101910004001D160202184F8391000F0DBF870BD5F
:101920005720000870B5040004D094F83900002551
:1019300010B106E0012070BD84F83850204600F058
:1019400023F8242084F839002068C16821F400516C
:10195000C160204600F02CFC2068016921F4904110
:1019600001612068416921F02A0141612068C16854
:1019700041F40051C160E563202084F8390084F807
:101980003A00002070BD000070B586B00025064604
:1019900000950195029503950068224988423FD140
:1019A0002149886940F480408861886900F480405A
:1019B0000490886940F00400886188691B4C00F03D
:1019C0000400049048150090022001900320039029
:1019D00069462046FEF76EFF2015CDE900056946F1
:1019E00020460295FEF766FF124C1148C4E9000537
:1019F0008020C4E90250256140016561C4E90650B8
:101A00002046FEF7CFFE08B1FEF7ECFC746300221F
:101A1000022125206662FFF7C1F82520FFF7B0F804
:101A200006B070BD003801400010024000080140BF
:101A30005800024038020020F8B5044690F83A00F9
:101A400020283CD1C1B3BAB394F83800012836D06D
:101A5000012084F83800A162A2850025E5632220D8
:101A600084F83A00636B17489862636B1648D86233
:101A7000636B16481863606B134645630846666BD4
:101A8000216802463046091DFEF7CAFE206801683B
:101A90004168009184F83850C16841F48071C16098
:101AA0002068416941F0010141612068416941F0CC
:101AB000400141610020F8BDFFE70120FBE7022063
:101AC000F9E70000B1200008ED20000867200008B9
:101AD000704770477047FEE7094808B5416941F013
:101AE000010141614069002200F0010000901146AF
:101AF0000F20FFF753F8BDE808400F20FFF740B86C
:101B0000001002402DE9F04186B0002423480094E3
:101B1000019402940394816941F0400181618169DB
:101B200001F040010491816941F004018161816902
:101B300001F004010491816941F00801816180692B
:101B4000174F00F008000490002220213846FEF7CD
:101B5000B2FFDFF85080002250214046FEF7ABFF75
:101B6000202001250226CDE90005CDE9024669467F
:101B70003846FEF79FFECDE900546946404602967E
:101B8000FEF798FE5020CDE90005CDE902466946F2
:101B90004046FEF78FFE06B0BDE8F081001002401F
:101BA0000018014000080140114810B50F490160BC
:101BB0004FF4827141604FF4004181600021C160A7
:101BC0004FF400720161C0E905120822C0E9072143
:101BD000416281620A21C162FFF78EFA002803D0B8
:101BE000BDE81040FEF7FEBB10BD00000030014014
:101BF0005801002010B586B00024164800940194C6
:101C00000294039404944FF080410594016041F6DE
:101C1000FF01C0E901143221C0E903148461FFF718
:101C2000FBFB08B1FEF7DEFB4FF4805000906946E5
:101C30000848FFF771FC08B1FEF7D4FB049404A92F
:101C400004480594FFF7AAFB002801D0FEF7CAFB61
:101C500006B010BDB00100200C4810B50A49016063
:101C60004FF4E1314160002181600C22C160C0E984
:101C700004128161C161FFF755FE002803D0BDE861
:101C80001040FEF7AFBB10BD00380140F801002046
:101C9000FEE77047704738B50B46009204460022B5
:101CA000802100F009F8002804D0606D40F0200089
:101CB0006065032038BD00002DE9F8431E469146BB
:101CC00088460446089DFEF7FBFE401B351AFEF7CA
:101CD000F7FE074625480068C0F3CB30684338E07C
:101CE000701C37D0FEF7ECFEC01BA84203D215B122
:101CF000009860B32CE02068416821F0E001416069
:101D00006068B0F5827F0BD1A068B0F5004F02D0BB
:101D1000B0F5806F04D12068016821F040010160B6
:101D2000A06AB0F5005F09D12068016821F4005174
:101D300001602068016841F400510160012084F8CD
:101D40005100002084F850000320BDE8F8830025EE
:101D5000401E00902068816838EA010004D000210C
:101D60004945BDD10020F0E70121F9E71800002026
:101D7000F8B516460C460546A02816D2802C14D27B
:101D800000F05CF8601CC3B2681CC2B2E1B2E8B2F9
:101D900000F05CF8300A8DF800008DF80160022137
:101DA000684600F08FF800F073F8F8BD2DE9F041B7
:101DB00010F8015B044617E0207800F071F86078B5
:101DC000A41C00F0800730F0800604D03146204685
:101DD00000F078F834443FB114F8010BFF2801D12A
:101DE0004FF4FA70FEF754FD6D1EEDB2E4D2BDE87B
:101DF000F081000010B500F021F80E4C00224021C7
:101E00002046FEF758FE0520FEF742FD0122402144
:101E10002046FEF750FE0848FFF7C8FF06483B3053
:101E2000FFF7C4FF04484830FFF7C0FFBDE810408B
:101E300000F02EB800080140A081010800222021F6
:101E40000148FEF738BE000000180140F8B507460B
:101E50001C4615460E462A2000F022F8002000906D
:101E60008DF801708DF803500421684600F02AF8BF
:101E70002B2000F015F88DF801608DF80340042147
:101E8000684600F01FF82C2000F00AF8F8BD0000AA
:101E9000012220210148FEF70EBE0000001801407B
:101EA00001B5002210210548FEF705FE4FF0FF3373
:101EB000012269460248FFF7A7F908BD0008014062
:101EC0005801002070B50D46044601221021064835
:101ED000FEF7F1FDAAB22146BDE870404FF0FF3396
:101EE0000248FFF791B900000008014058010020A6
:101EF000704710B5012013F051F9BDE81040FEF70E
:101F0000E5BD30B58FB028216846FEF734F91421BD
:101F10000AA8FEF730F901210804CDE900100024D9
:101F2000029402250491CDE907504FF4C0100990A6
:101F30006846FEF751FF0F20CDE90A056802CDE99A
:101F40000C4002210AA80E94FEF75AFE0FB030BDD5
:101F5000704700000148FFF74BBB0000B0010020B4
:101F6000F0B502681C4B1D4D1D4E1E4F1E4C4FF010
:101F7000804C984209D0A04207D0604505D0A842C5
:101F800003D0B04201D0B84204D122F0700E4A68AA
:101F900042EA0E02984209D0A04207D0604505D01F
:101FA000A84203D0B04201D0B84203D122F4407518
:101FB000CA682A434D6922F080022A4302608A6877
:101FC000C2620A688262984201D0A04201D10969C6
:101FD000016301214161F0BD002C0140000400407B
:101FE00000080040000C00400034014010B5846837
:101FF00042EA032224F47F440A432243826010BD54
:10200000826822F070020A4342F007018160704743
:1020100010B5036A046A24F001040462846924F0A0
:10202000F00444EA021423F00A020A4384610262C3
:1020300010BD10B5036A23F0100303628369046ABC
:1020400023F4704343EA023224F0A00343EA01116F
:102050008261016210BD10B5406A0021C185C18452
:10206000FFF7B1FB10BD70B5446A2068406994F871
:102070003910C0F3C0100025212904D118B1E5841E
:10208000204600F046F82068406994F83A10C0F302
:102090008010222904D118B1E585204600F02BF8E4
:1020A000E06B40F01000E0632046FFF78CFB70BD52
:1020B00010B50146406A09680968890613D40021F1
:1020C000C1850168CA6822F48072CA6001684A69E1
:1020D00022F001024A6101684A6922F040024A6125
:1020E000202180F83A10FFF7F3FC10BD10B5406ACC
:1020F000FFF7EFFC10BD0168CA6822F49072CA6055
:1021000001684A6922F001024A61202180F83A10F0
:1021100070470168CA6822F0C002CA60202180F8B6
:102120003910704710B590F83A10222901D00220DA
:1021300010BD82684FF480539A4201D1016921B1E8
:10214000816A9A421BD04AB10AE00268816A5268E9
:10215000C2F308020A80816A891C08E0026972B130
:102160000268526802F07F020A70816A491C81622B
:10217000C18D491E0904090CC18503D016E002680F
:102180005268F1E70168CA6822F02002CA6001685B
:10219000CA6822F48072CA6001684A6922F00102AA
:1021A0004A61202180F83A10FFF792FC002010BD10
:1021B00070B5044600680169E26821F4405111439A
:1021C00001612169A0680843616908432168CA6800
:1021D00041F20C639A430243CA6020684169A269D4
:1021E00021F44071114341611E492068884202D1A7
:1021F000FEF7ACFD01E0FEF799FD00EBC00101EB3D
:102200000012606864218000B2FBF0F3B3FBF1F3CD
:102210006FF018067343B2FBF0F5B2FBF0F605EB76
:102220008305322303EB0515B5FBF1F5B6FBF1F69B
:1022300005F0F00505EB0615B2FBF0F6B2FBF0F089
:10224000B0FBF1F06FF01802504306EB800003EB97
:102250000010B0FBF1F0216800F00F002844886006
:1022600070BD00000038014010B50448FFF7ACFA1B
:10227000BDE81040014800F043B80000F80100201C
:102280007CB51B48FFF773FA1A48006840681A4C7F
:10229000C0F12800C6B2A0788DF80000E0788DF873
:1022A000010020798DF80200207A8DF80400607A10
:1022B0008DF80500A07A8DF806006846FDF791FFBD
:1022C0000E4D286001A8FDF78CFF6860207B312847
:1022D0000BD00020A86031460748FDF74CFF2822AC
:1022E00005490348FFF7A8FB7CBD0120F2E7000089
:1022F000F8010020380200203001002000000020FA
:102300000849094A82B00968914209D10A68D24352
:10231000D20605D40A684968009102B0FFF7B0BF41
:1023200002B07047F801002000380140FEE70907BD
:10233000090E002804DB00F1E02080F8001470474B
:1023400000F00F0000F1E02080F8141D704700003D
:10235000004870472C01002002E008C8121F08C185
:10236000002AFAD170477047002001E001C1121F16
:10237000002AFBD17047000010B54021074801F04A
:102380007EF9002304221E21054812F011FD054CA0
:10239000A06002F0B9FB0020207010BDB80300203F
:1023A000BD4B00088C0000202DE9F04100251C46A3
:1023B00088460646152A3BD2DFE802F00B1B1D2E8D
:1023C0003744535C5E676A79878999A6ABB0B5BA22
:1023D000CD0030460AF0BFF8054640460AF0BBF88B
:1023E000014605EBD570401001EBD171A0EB610007
:1023F000A1E025800EE030460AF0ADF807464046E1
:102400000AF0A9F807EBD771491000EBD070A1EBE7
:1024100060008BE065800BE030460AF09CF80746D0
:1024200040460AF098F8381A80E0258097E06080EE
:102430002088318808442080608871880844608042
:10244000BDE8F08130460AF086F8054640460AF0BD
:1024500082F805EBD571491000EBD070A1EB60005C
:102460007CE030460AF077F8054640460AF073F8FB
:10247000281A73E025805FE030460AF06CF80546C4
:1024800040460AF068F8281A55E02580084618E00A
:1024900030460AF060F8054640460AF05CF805EB65
:1024A000D571491000EBD070A1EB600007E0304619
:1024B0000AF051F8054640460AF04DF8281A2080E7
:1024C00040460AF01CF84042B1E7258018E030464B
:1024D0000AF041F8054640460AF03DF8014605EB92
:1024E000D570401001EBD171A0EB610007E03046E0
:1024F0000AF031F8054640460AF02DF8281A2080E7
:10250000304609F0FCFF92E708460AF024F8404202
:102510000CE008460AF01FF840420CE008460AF0BA
:102520001AF840421AE030460AF015F8208071E7A8
:1025300030460AF010F82080304609F0E0FF0546EA
:10254000404609F0DCFF05EBD571491000EBD07077
:10255000A1EB60006BE7304609F0FDFF20803046BC
:1025600009F0CDFF0546404609F0C9FF281A5EE78D
:1025700070B5B1F90030B2F90040A34200DC234647
:102580000380B1F90250B2F90240A54200DD2C46A9
:102590004480B1F90460B2F90450AE4200DA354625
:1025A0008580B1F90610B2F90620914200DB114690
:1025B000C1800120AB4201DC8C4200DD002070BDF7
:1025C000F8B50D460446B0F90000B1F90010164602
:1025D000884247DBB4F90210B5F90220914241DB91
:1025E000B4F90410B5F9042091423BDCB4F90610AB
:1025F000B5F90620914235DC96B3ADF8000060884D
:10260000ADF8020032466946284600F049F8002835
:1026100027D0A088ADF800006088ADF802003246EF
:102620006946284600F03CF800281AD02088ADF80A
:102630000000E088ADF8020032466946284600F006
:102640002FF800280DD0A088ADF80000E088ADF884
:10265000020032466946284600F022F8002800D0E1
:102660000120F8BD0020F8BDB0F90020B1F9043018
:102670009A4213DCB0F90420B1F900309A420DDB24
:10268000B0F90220B1F906309A4207DCB0F9060031
:10269000B1F90210884201DB012070470020704729
:1026A0002DE9FC4114460E46B1F90020B0F90010A6
:1026B00005468A423ADBB5F90400824236DCB6F9B7
:1026C0000270B5F90220974230DBB5F906309F421F
:1026D0002CDC002C75DD401A9A1A401C521C00B2EA
:1026E00012B200EBD07002EBD27240105210904246
:1026F00000DB1046844200DD0446ADF80010288857
:1027000000222044ADF804006888ADF80200688813
:1027100031462044ADF806006846FFF7C1FF40B1DE
:10272000BDF804002044ADF804003FE00020BDE8FF
:10273000FC81E8880022001BADF80200E888ADF8B3
:10274000060031466846FFF7ABFF28B1BDF804002C
:102750002044ADF8040011E0A8880022001BADF869
:102760000000A888ADF8040031466846FFF798FFDE
:1027700050B1BDF80000001BADF80000BDF802002C
:10278000001BADF8020016E06888ADF8020068880A
:1027900000222044ADF8060031466846FFF780FF6E
:1027A00070B1BDF80000001BADF80000BDF80600D8
:1027B0002044ADF806003146684611F04FFCB6E7FC
:1027C000FFE70120B3E710B5B1F90040B2F90030DE
:1027D0009C4200DA23460380B1F90240B2F902308C
:1027E0009C4200DA23464380B1F90440B2F9043038
:1027F0009C4200DD23468380B1F90610B2F9062021
:10280000914200DC1146C18010BD2DE9FF4F87B019
:102810001D46DDE91476DDF858908B46022E50D324
:10282000002F4ED001F05CFC80460BF06FF800F1F9
:102830001004D0F808A0D8F82410404601B1884709
:102840005A4604A80799FFF793FE002839D0BDF82F
:1028500010002188401A01B2ADF81010BDF8120026
:102860006288801AADF81200BDF814002288801A20
:1028700000B2ADF81400BDF816206388D21AADF886
:10288000162095B198F80820D2070ED1401A401CA6
:1028900001B2002007E02A5C802A01D9FF2200E073
:1028A00000222A54401C8842F5DBD8F8140058B1A5
:1028B000CDE90065029704AA51462046099B07F01E
:1028C000FFF80BB0BDE8F08FB9F1000F0AD001A8F6
:1028D000009680E8A00204AA51462046099B06F013
:1028E00089FEEEE7CDE90065029704AA514620462D
:1028F000099B06F019FFE4E72DE9FF4F87B01D465D
:10290000DDE91476DDF858A09146022E52D3002F4F
:1029100050D0014605A8089AFFF72AFE002849D0A2
:1029200001F0DEFB80460AF0F1FF00F11004D0F860
:1029300008B0D8F82410404601B18847BDF814000B
:102940002188401A01B2ADF81410BDF81600628853
:10295000801AADF81600BDF818002288801A00B25F
:10296000ADF81800BDF81A206388D21AADF81A2005
:1029700095B198F80820D2070ED1401A401C01B238
:10298000002007E02A5C802A01D9FF2200E0002213
:102990002A54401C8842F5DBD8F8140068B1CDF801
:1029A00000900397CDE9016505AA59462046089B8A
:1029B00013F002F80BB0BDE8F08FBAF1000F0BD0A6
:1029C00002A805AA80E8A004CDE900965946204651
:1029D000089B12F0A3FDEDE7CDF800900397CDE939
:1029E000016505AA59462046089B12F047FEE1E71B
:1029F000D0F87821C2F309438B4202D204490A403D
:102A000002E0591A61F31942C0F8782170470000BA
:102A1000FFFF00FC2DE9FC5F054612F0B5FB554CAD
:102A20000190E86860600021284612F0EFFA6068C3
:102A3000C16BA9B111F048FD11F0BEFC60684E4AAF
:102A4000D0F8781111427DD0A3460AF0FCFF00288F
:102A500067D0DBF804005D464169002961D108E0D8
:102A60004549D0F87821C9430A40C0F87821BDE82B
:102A7000FC9F0AF04BFF044611F020FEA0690028DD
:102A8000FCD16868B0F90000400000F017FF8246F2
:102A9000A16820688946814200D1606880466868E4
:102AA0000AF048FF06460024AB462DE00A1992F8CA
:102AB0005A213ABB01EBC40131F95A2FB1F9025046
:102AC000898806FB0523891A491C5F0009B2490061
:102AD00000910FE008EB07015046009A00F0B2FFAA
:102AE00009EB07005146009A00F0ACFF6D1C07EBA4
:102AF00046072DB2DBF8040000EBC400B0F960001B
:102B0000A842E7DA641CA4B2DBF80410D1F87821FB
:102B1000C2F30942A242C9D8BAF1000001D000F0C4
:102B200053FFDBF804004FF480715C465A3001F02B
:102B30007FF86068202100F5AD7001F079F86068D9
:102B40000D4A00E00FE0D0F87811D2431140C0F8F0
:102B50007811019812F012FB63689D691DB101465E
:102B600018462268A84700F087FEBDE8FC5F00F029
:102B700005B80000300000200000FF0310B5044C31
:102B80002068002803D00FF025F90020206010BD38
:102B9000B00000201821014800F071BDC4030020DE
:102BA0002DE9FF5F0446DDE90E0613B9B0F5807F1D
:102BB0007ED0B6F900504FF0FF376D42454307EB2A
:102BC00025252DB22580B6F902C0CCF1000C0CFBF6
:102BD00000FC07EB2C273FB26780B6F900C0A1EBE1
:102BE0000C0141434FF0020C0CEB212109B2A180F2
:102BF000B6F90280A2EB080242430CEB222000B29D
:102C0000E080002B7ED04FF00A0A93FBFAF5684271
:102C100000EB800003EB400705F1010928B201F049
:102C2000F9FD00900FFA89F001F0F4FD83465A3562
:102C300028B201F0EFFD804609F15A0000B201F020
:102C4000E9FD0146009AC7F10A0000FB02F300FB10
:102C500008F00BFB073301FB070193FBFAF291FB32
:102C6000FAF04FEA601AB4F90010B4F902000AFB56
:102C700001FCCDF80CC05511378805FB10C207EBDD
:102C8000A2220FFA82F905FB01F2BB460292778875
:102C90000AFB002107EBA1210BB2B4F90410BE46D8
:102CA0000AFB01FC05FB10C20BEBA22216B200E0EE
:102CB0002FE005FB01F7CDE9007CB4F90680DDF8D3
:102CC0000CC00AFB007005FB18C1DDF804C0009FB2
:102CD00005FB18C5029A0AFB087C0AFB08220BEBCD
:102CE000A1210EEBAC270EEBA02009B20EEBA22225
:102CF0000BEBA5250FFA87FC00B212B22DB24F469E
:102D0000494500E00EE000DA0F46B54216DAA84663
:102D100015E000202080491E6080A180521EE280C4
:102D2000BDE8FF9F32882A44228072883A4462803C
:102D300032881144A180718808444FE0B04647456D
:102D400004DA4F46494506DA0F4604E0B54201DA97
:102D50002F4600E0374627804F46494500DD0F46A5
:102D6000B54201DDA84600E0B046474503DD4D46CB
:102D7000494505DC01E0B54201DD294600E0314668
:102D8000A1809A4201DA154600E01D46844501DA29
:102D9000614600E001468D4205DA9A4201DA1146A9
:102DA00006E0194604E0844501DA614600E0014688
:102DB00061809A4201DD114600E01946844501DD3B
:102DC000654600E00546A94205DD9A4201DD104650
:102DD00004E0184602E0844500DD6046E0809FE79D
:102DE0002DE9FE4F0446D0F800B0B0F90800E5899F
:102DF000081AB4F90A10511AD4E90932B5F5807FDE
:102E00003CD0A589002DA56B05FB00F005FB01F565
:102E10004FEA60104FEA65113ED0256BE66A05FB6C
:102E200000F706FB1177464305FB016003EBA7297A
:102E300002EBA02080460612B4F904004FEA2927CD
:102E4000B84248DD002F46DBB4F90610B14242DD3E
:102E5000002E40DB94F834104A073FD58A0704F16E
:102E600014031DD400FB067045004FF0020A0BEB63
:102E700005015246184600F091FE22E0256BE66AF5
:102E800005FB00F706FB1177464305FB016003EBEA
:102E9000A70902EBA000CDE703EB00095018C9E732
:102EA00000FB067000EB40054FF0030A0BEB050139
:102EB0000222184600F072FEE81C584410F8010C7B
:102EC000A07594F83400C0071ED01948A18A008864
:102ED00080B2814218D10020BDE8FE8F32B204F1E9
:102EE00018002369CDE90102002539B2AA468B46B4
:102EF0000CF038FB0090BDF80000A082DDE9010273
:102F000059460CF0C7FADBE7E07C78B1A4F83C90B6
:102F1000A4F83E80A4F84070A4F84260656484F888
:102F200048A02046BDE8FE4F00F004B80120D3E7DA
:102F3000188201082DE9F04F044690F83C10D0F8B3
:102F4000009090F83E0087B04FF0FF36702907DA06
:102F5000B4F940203546012A00D5002580310DE026
:102F6000902916DDB4F94020B4F904300125521C33
:102F70009A4200DB0025A1F27F114942C9B288467E
:102F8000702809DAB4F94210012900D500268030F2
:102F900010E00025FF21F2E790280DDDB4F9421082
:102FA000B4F906200126491C914200DB0026A0F25C
:102FB0007F104042C7B201E00026FF276069009001
:102FC000A07D0590002082468346049094F834004A
:102FD000400744D594F84810606C022201FB0501BB
:102FE000494401A800F0E6FDB4F9040094F8481043
:102FF00002224843616C06FB0011494403A800F01B
:10300000D9FDB4F9041094F84800626C414306FB02
:10301000012200FB05901118022202A800F0CAFD4F
:1030200094F83400800761D594F84800616C00EB97
:10303000090200FB0513134413F8013C0493B4F98F
:103040000430434306FB031100FB05000A4401441E
:1030500001EB090012F801AC10F8010C45E0B4F8DE
:103060004000B4F94220284401B204F1180081461E
:1030700023690CF077FA0190B4F84200B4F94010DB
:10308000304402B254F8103F48460CF06BFA0390FB
:10309000608E2368304402B2208E284401B2484634
:1030A0000CF060FA029094F82400103C80071DD5C3
:1030B000B4F9422034F8400F284401B248460CF0DD
:1030C000E9F904906088B4F90010304402B248462F
:1030D0000CF0E0F982466088304402B234F84009CE
:1030E000284401B248460CF0D5F9834694F83400E0
:1030F00042464546800735D50599049B01FB08F1FA
:10310000C8F1FF0003FB00110AFB08F30BFB0030C2
:10311000C1F30721C0F3072001FB07F3C7F1FF0646
:1031200000FB06331B0AA375022907D8022803D81F
:10313000002007B0BDE8F08F002702E0022800D889
:10314000FF270598022800D800220498022800D8FA
:10315000FF22BAF1020F00D80025BBF1020F03D8FD
:10316000FF2501E0FF20A075EAB1FF2A04D0DDE9C8
:10317000000109F02EFC0090BDB1FF2D17D0DDE954
:1031800002102A4609F025FC049097B1FF2F05D0C4
:1031900001463A46009809F01CFC0090BDF800007A
:1031A000A0820120C5E70198E5E70298ECE70398C3
:1031B000EAE7BDF81000F3E72DE9F0470446B0F95F
:1031C00008000A2700026062B4F90A000002A06247
:1031D000B4F90C1091FBF7F5684200EB800001EBAD
:1031E0004006684205F1010800B201F013FB824677
:1031F000E84300B201F00EFB8146C5F15A0000B26F
:1032000001F008FB0546C8F15A0000B201F002FBCC
:10321000C6F10A0101FB0AF3024609FB06306943C5
:1032200090FBF7F002FB061191FBF7F14011E06211
:1032300048112063A07C0CF0A9FA94F8341060F3D4
:10324000000184F83410A07C0CF090FA94F834104B
:1032500060F3410184F83410A07C042824D00528B0
:1032600022D0062820D021F0040100BF84F83410B9
:1032700021682162A16921F0E00160F30401A088C6
:1032800060F39421E08860F35F51A161E0894FF41D
:10329000001101EB5001B1FBF0F0A063FF20A0751D
:1032A000208AA082BDE8F08741F00401DEE700003B
:1032B0002DE9F0473B4E88468146318821B13A4896
:1032C0003A4C056800200EE00020BDE8F08700BF02
:1032D00000EBC00205EB82031A6AA24201DD521E16
:1032E0001A62401C80B28842F2D300241FFA88F789
:1032F00021E000BF04EBC40005EB800001898F4290
:1033000017D1416848460CF0C9F990B104EBC400EC
:1033100005EB80004269016A11444FF47A72016240
:10332000914200DD02620028CFD12C460120328874
:1033300011E0641CA4B230888442DBD3F5E700BFFF
:1033400000EBC00105EB8101266A0B6AB34200DA8B
:103350000C46401C80B29042F2D3606810B1204607
:103360000CF00CFD11F010FF054642464946204680
:103370000CF058FD20B100202062606940B10EE0E1
:103380002421204600F054FC4FF0004020629BE7CF
:10339000284611F0F3FE606108B901206061204603
:1033A00093E700004000002098000020010000800A
:1033B00010B510210C4800F062F90CF0F1FC044645
:1033C0000AF0A8F950B1002C07D00848206008483E
:1033D00060600848A0600848E06010BD22460023F5
:1033E00006A00AF09BF9FEE7D003002013F90008BD
:1033F000D5FB00081DFD0008EDF800084F7574208E
:103400006F66206D656D6F727900000000210846BF
:103410000DF0ACBB70B50C460546002610212046C9
:1034200000F006FC2878012804D0022807D00428E0
:1034300008D00BE0288C2080688C608006E0686AE9
:10344000606003E00A2060600020A0816A681AB111
:103450002146284690470646304670BD7FB5274C2A
:10346000C0686060C168002947D008F067F86068EC
:1034700090F85000400740D4002569466068FFF787
:10348000C9FF0646606808F059F8256061689DF834
:103490000E000877012805D00878042808D1BDF867
:1034A0000C00D0B111F070FE6168C968C1F87C01F0
:1034B00062681078012806D0022809D004280CD0B0
:1034C00003280FD012E06946104607F001FE0DE018
:1034D0006946104607F0EAFC08E06946606807F0B4
:1034E000ADFA03E06946104606F0D6FF606808F0C2
:1034F00025F8002EC1D1656025607FBD1C0000202D
:103500007FB50D46040003D10AF002FA040025D06D
:103510002E4EF5B10020ADF80000ADF802002046B7
:103520000AF008FA401EADF8040020460AF06CFAD2
:10353000401EADF806006A46294602A8FFF718F8B3
:1035400000280BD0226912B102A92046904700251D
:1035500011E0D4F878013040C4F878017FBD00BF95
:1035600004EBC501002202A85A31FFF729F8002810
:10357000F4D16D1CADB2D4F87801C0F30940A84273
:10358000EED8D4F87801C0F30941202903D204EB26
:10359000C10002A907E03040C4F87801C0F3094037
:1035A00004EBC00069465A3008F07CFFD4F878017B
:1035B0004FF4800101EBB0604FEAB010C4F878011D
:1035C0000321E06A11F022FD7FBD0000FFFF00FC37
:1035D00070B50C461E461546114600F000F9AEB116
:1035E00000222946204612F0D7FA29462046626872
:1035F00012F0CCFA616819B12A46204612F0CCFAD2
:103600006560A068002800D1A56070BD29462046ED
:10361000A26812F0C1FA00222946204612F0B6FA3A
:10362000A16819B12A46204612F0B0FAA560606878
:103630000028EAD1656070BD002100B141680846EC
:10364000704700B503460022FFF7F6FF03E0184677
:10365000521C00F004F80100F9D1104600BD00280A
:1036600002D00068091D40587047002801D000684A
:1036700040587047002100B1816808467047002219
:103680004260C91C21F0030182600160704770B57F
:103690000446006808300EF049FB050013D00146CF
:1036A0000022204612F078FA29462046626812F07D
:1036B0006DFA616819B12A46204612F06DFA65600C
:1036C000A06800B9A560284670BD2DE9F0410D46FF
:1036D00007002BD055B3FFF7AFFFA84204D13846FF
:1036E000FFF7D5FF04461EE0386808300EF01EFBD9
:1036F00004001BD029463846FFF7B7FF06460146AF
:103700002246384612F042FA32462146384612F036
:1037100043FA22462946384612F03EFA2A46214606
:10372000384612F033FA2046BDE8F0810020FBE76E
:1037300070B50446006808300EF0F8FA050013D0A2
:1037400001460022204612F021FA29462046A268AE
:1037500012F022FAA16819B12A46204612F016FA90
:10376000A560606800B96560284670BD28B14168F1
:1037700009B9806808B100207047012070472DE921
:10378000F04116460D460746B14226D01EB11146FD
:10379000FFF76BFF01E0FFF76DFF0446A5421CD069
:1037A0002946384600F01BF82A462146384612F0D2
:1037B000EDF922462946384612F0EEF92A463146FE
:1037C000384612F0E9F932462946384612F0DEF959
:1037D00006B9BD60002C00D17D60BDE8F08170B5F8
:1037E0000A460446FFF728FF002390420AD11146FB
:1037F0002046FFF734FF6060011E01D0002224E064
:10380000A36070BD2046FFF735FF90421146204669
:103810000CD1FFF72AFFA060011E05D02046BDE8AD
:103820007040002212F0B2B9636070BDFFF71DFF57
:10383000064611462046FFF712FF0546024631466E
:10384000204612F0A3F9324629462046BDE87040D2
:1038500012F0A2B910B59042029C01DB204610BDC7
:10386000884201DC184610BD521AE41A401A60431F
:1038700090FBF2F0184410BD70B500200D490546CC
:1038800001EBC002401CC0B295710228F8D30A4E69
:10389000002400BF56F8340038B10EF09BFA06EB56
:1038A000C40046F8345085718580641CE4B2102C45
:1038B000F0D370BDC4000020E80300202DE9F041E2
:1038C000050019D00126102D0BD83049002000BF6B
:1038D00001EBC0029279D20711D0401CC0B202287D
:1038E000F6D32B4C4FF0FF30002200BF04EBC20197
:1038F0008B79DB0709D01AE00020BDE8F08101EBED
:10390000C002967151F83000F7E78988A9420ED3BA
:1039100005D104EBC200867154F83200EDE70028AF
:1039200004DB04EBC0039B88994200D250B2521CC6
:10393000D2B2102ADAD3002805DB04EBC0018E7165
:1039400054F83000D9E7002704EBC7008079C0079E
:1039500009D07F1CFFB2102FF6D3002213460DA012
:1039600009F0DCFEFEE754F8370029460EF060FA55
:1039700030B104EBC7018E718D8044F83700BCE78D
:10398000002213460F4809F0C9FEFEE7C4000020DC
:10399000E80300204E6F20667265652062756666DA
:1039A00065722E20496E637265617365204C565FA7
:1039B0004D454D5F4255465F4D41585F4E554D2E2A
:1039C0000000000014B9010810B500210C4B0A4694
:1039D00053F83140844209D0491CC9B20229F7D3B7
:1039E000084B002153F83140844203D103EBC1005E
:1039F000827110BD491CC9B21029F3D310BD00005B
:103A0000C4000020E8030020002803D004498842B5
:103A100001D10020704750F8040C400870470000A6
:103A2000BC0000200649054843F6FC724860016866
:103A300021F0010162F35F0101607047E80400209A
:103A4000B400002030B500F0030401F00305034684
:103A5000A54243D14EE00C781C704C785C708C7899
:103A60009C70CC78DC700C791C714C795C718C7911
:103A70009C71CC79DC710C7A1C724C7A5C728C7AF9
:103A80009C72CC7ADC720C7B1C734C7B5C738C7BE1
:103A90009C73CC7BDC730C7C1C744C7C5C748C7CC9
:103AA0009C74CC7CDC740C7D1C754C7D5C758C7DB1
:103AB0009C75CC7DDC750C7E1C764C7E5C768C7E99
:103AC0009C76CC7EDC760C7F1C774C7F5C778C7F81
:103AD0009C77CC7FDC772031203A2033202ABAD85B
:103AE00005E000BF11F8014B03F8014B521E002AFC
:103AF000F8D130BD4CB3C4F1040405E011F8015B0A
:103B0000521E03F8015B641EFCB1002AF6D11CE0D2
:103B100010C9203A10C310C910C351F8084B43F81C
:103B2000084B51F8044C43F8044C51F8104B43F83F
:103B3000104B51F80C4C43F80C4C51F8084C43F81E
:103B4000084C51F8044C43F8044C202AE0D802E019
:103B500010C9121F10C3042AFAD804E011F8014B4F
:103B600003F8014B521E002AF8D130BD10B50346B0
:103B700005E000BF11F8014B03F8014B521E002A6B
:103B8000F8D110BD10B5034605E000BF11F8014B98
:103B900003F8014B521E002AF8D110BD10B50346A0
:103BA00005E000BF11F8014B03F8014B521E002A3B
:103BB000F8D110BD10B5034605E000BF11F8014B68
:103BC00003F8014B521E002AF8D110BD10F0030378
:103BD00009D0C3F1040303E0521E00F8011B5B1E71
:103BE0000BB1002AF8D101EB012303EB014303EBF6
:103BF00001630EE008C0203A08C040F8083B40F8D6
:103C0000043C40F8103B40F80C3C40F8083C40F8BD
:103C1000043C202AEED801E008C0121F042AFBD879
:103C200003E000BF00F8011B521E002AFAD17047C2
:103C300010F003034FF0000219D0C3F1040303E0B6
:103C4000491E00F8012B5B1E8BB10029F8D170478B
:103C500004C0203904C040F8082B40F8042C40F878
:103C6000102B40F80C2C40F8082C40F8042C20298C
:103C7000EED801E004C0091F0429FBD803E000BF0F
:103C800000F8012B491E0029FAD1704710F00302F9
:103C90004FF0FF030AD0C2F1040203E0491E00F80E
:103CA000013B521E12B10029F8D170474FF0FF328C
:103CB0000EE004C0203904C040F8082B40F8042C62
:103CC00040F8102B40F80C2C40F8082C40F8042C3D
:103CD0002029EED801E004C0091F0429FBD802E026
:103CE00000F8013B491E0029FAD1704770B50D4616
:103CF00006460024214630460FF079F838B1416875
:103D0000641C65F3CB21E4B24160402CF2D3402423
:103D1000214630460FF06BF8002807D04168641C3C
:103D200065F3CB21E4B24160FF2CF1D370BD0000FC
:103D30002DE9F04786B014468A461646170A05460E
:103D40004FF0000823E0514628460FF050F8814616
:103D5000514628460EF0DAFF06EB002084B202AA94
:103D60002146484600F0CAFA012807D0380610D587
:103D7000BAF1000F07D04FF0000A08E0BDF80800C4
:103D800006B0BDE8F08728460EF07EFF0546002D00
:103D9000D9D124F4FE40292804D02A2802D0CDF815
:103DA000008002E0024800680090BDF80000E7E7EC
:103DB000148201082DE9F8431546894617464FEA53
:103DC00012280646A5E0494630460FF010F8044692
:103DD0004068010570D481066ED0400505D425F4F5
:103DE000FE424946304613F0D9FF25F4FE40302804
:103DF00059D024DC112869D010DC052850D006DC0D
:103E000001285DD0022845D004286CD148E006285E
:103E100046D0072844D0102865D157E0162858D03E
:103E200006DC122852D0132850D015285BD150E060
:103E300017284ED018284CD0202854D14CE06028A8
:103E40004AD010DC402838D006DC31282ED0322869
:103E500042D0332847D12CE042283DD0502832D0E0
:103E6000542840D138E048F28102811A904214D09F
:103E700009DC722830D091282ED000F5FF40B0F533
:103E8000803F30D109E0012929D0022924D01F29FF
:103E900029D121E0A088400423E06068800020E070
:103EA000A08800041DE0606880021AE0606840029B
:103EB00017E06068000214E015E06068C00110E0DF
:103EC000A088C0040DE0606840010AE06068C0039B
:103ED00007E06068800304E06068400301E0606818
:103EE0004000002818DB494630460EF00FFF07EB74
:103EF000002085B26A462946204600F03BFA012898
:103F000014D05FEA086007D5B9F1000F12D04FF066
:103F10000009002E7FF457AF25F4FE40222817D069
:103F20000CDC032804D007280CD113E0BDF90000F5
:103F3000BDE8F88330460EF0A7FE42E7312803D0F3
:103F4000C02803D00020F3E70F20F1E70720EFE7B8
:103F5000FF20EDE74FF48070EAE72DE9F8431446BF
:103F6000894617464FEA122806463BE04946304646
:103F70000EF03DFF0546406801051DD481061BD0AB
:103F8000400505D424F4FE424946304613F006FFAE
:103F900024F4FE402C2809D00C38B0F5004002D0A3
:103FA000A12809D12DE0A888800403E06868C10237
:103FB00024D40003002817DB494630460EF0A6FE45
:103FC00007EB002084B26A462146284600F00EFA2C
:103FD000012819D05FEA086006D5B9F1000F16D0A4
:103FE0004FF00009002EC1D124F4FE402C2812D03D
:103FF0006D2810D0AD38B0F5004F0CD0FF20BDE8D3
:10400000F8836868C000D5E79DF80000F7E7304600
:104010000EF03AFEA8E70020F1E700002DE9F84392
:104020001446894617464FEA122806463BE04946A1
:1040300030460EF0DCFE0546406801051DD48106C1
:104040001BD0400505D424F4FE424946304613F007
:10405000A5FE24F4FE406E2809D07F2804D08E38B7
:10406000B0F5004F09D105E06868000103E0686819
:10407000800100E06868002817DB494630460EF0F2
:1040800045FE07EB002084B26A462146284600F030
:10409000E9F9012816D05FEA086006D5B9F1000FEA
:1040A00012D04FF00009002EC1D124F4FE407E282A
:1040B0000ED0BE280FD08E38B0F5004F08D00020AB
:1040C000BDE8F8830098FBE730460EF0DDFDACE775
:1040D00010F0E6FFF4E70148F2E7000070B70108CE
:1040E000014840687047000030000020704730B53C
:1040F00004020020831803FB03F5A54200D81846EC
:104100005208F7D1020900070A80000E488030BD2E
:1041100070B51646054606F0D5F8040002D54FF0F6
:10412000FF3070BD2968A01C014402223046FFF711
:1041300029FD2146284606F002F900F07F0070BDF7
:1041400070B51646054606F0BDF8040002D54FF0DE
:10415000FF3070BD2968A01C014402223046FFF7E1
:1041600011FD2146284606F0EAF800F07F0070BDF8
:1041700070B5050003D0286808B1002405E00020D0
:1041800070BD00BF06F090F804442146284606F0B2
:10419000DBF8FF28F6D1A41CA0B270BD70B516469E
:1041A000054606F08FF8040002D54FF0FF3070BDD1
:1041B0002968A01C014401223046FFF7E3FC214698
:1041C000284606F0BCF800F07F0070BD70B51646BA
:1041D000054606F077F8040002D54FF0FF3070BDB9
:1041E0002968A01C014404223046FFF7CBFC21467D
:1041F000284606F0A4F800F07F0070BD70B50E46AA
:1042000005003AD000F06EF96868810616D0800685
:10421000010E091D28680DF00BFE044609F07AFA1C
:1042200080B1002C29D0696800200A0600D5012041
:104230004A0600D5401C01F03F0111E004200DF0BA
:1042400075FDEAE7224600230CA009F067FAFEE7B5
:1042500004EB810252F8042C44F82120491EC9B213
:104260008142F5D844F8206068684FF0806101EB26
:10427000B0104FEAB060C5E9004070BD4F757420C2
:104280006F66206D656D6F727900000070B5054630
:104290000079000604D52846BDE8704000F019B941
:1042A00004200DF043FD044609F034FAA8B1D4B15E
:1042B000204610F0E7FB21462846FFF79FFF68687D
:1042C00040F080006860400605D52868D0E90012FB
:1042D000026028684160204670BD2246002303A08A
:1042E00009F01CFAFEE7002070BD00004F75742035
:1042F0006F66206D656D6F72790000002DE9F843DF
:1043000017468946060033D0306800282ED000209A
:104310004FEA19284FF0FF34ADF8000005461DE0C4
:10432000E9B2304610F02DFC6A464946FFF7F0FE30
:10433000404503D1BDF80000388016E071680A06D8
:1043400004D5002802DB0DB9C905F3D5A04203DD71
:104350000446BDF8000038806D1C2DB2307900F0A5
:104360003F00A842DCDC002C02DB0120BDE8F88322
:104370000020FBE72DE9F84317468946060033D0B5
:10438000306800282ED000204FEA19284FF0FF3463
:10439000ADF8000005461DE0E9B2304610F0F1FB33
:1043A0006A464946FFF7CCFE404503D1BDF8000000
:1043B000388016E071680A0604D5002802DB0DB9C2
:1043C000C905F3D5A04203DD0446BDF800003880DE
:1043D0006D1C2DB2307900F03F00A842DCDC002CCF
:1043E00002DB0120BDE8F8830020FBE72DE9F8435C
:1043F00017468946060033D0306800282ED00020AA
:104400004FEA19284FF0FF348DF8000005461DE0F3
:10441000E9B2304610F0B5FB6A464946FFF7BEFEEA
:10442000404503D19DF80000387016E071680A0617
:1044300004D5002802DB0DB9C905F3D5A04203DD80
:1044400004469DF8000038706D1C2DB2307900F0E4
:104450003F00A842DCDC002C02DB0120BDE8F88331
:104460000020FBE72DE9F8431746894606002ED0C9
:104470003068002829D04FEA19284FF0FF34002572
:104480001BE0E9B2304610F07CFB6A464946FFF774
:104490009DFE404502D10098386015E071680A061B
:1044A00004D5002802DB0DB9C905F4D5A04202DD10
:1044B0000446009838606D1C2DB2307900F03F0042
:1044C000A842DEDC002C02DB0120BDE8F8830020DE
:1044D000FBE70179090601D40020704700680068F5
:1044E0007047000070B50E464168044688061CD02F
:1044F000002001F03F0116E0226852F82020B2426D
:104500000FD10025012911D08800001F0DF00EFCED
:10451000054609F0FFF890B1002D06D000200146B5
:104520001EE0401CC0B28142E6D870BD20680DF08C
:1045300051FC2560606820F07F00606070BD2A46F5
:10454000002310A009F0EAF8FEE7226852F82020C4
:10455000B24203D045F82120491CC9B2401CC0B268
:10456000227902F03F028242EFD820680DF032FC3F
:1045700060684FF07C4101EBB0104FEAB060C4E9D5
:10458000005070BD4F7574206F66206D656D6F7241
:104590007900000070B5040025D02079400609D5C7
:1045A000204610F0E2FA050004D010F02BFB28465C
:1045B0000DF010FC2079000609D52046FFF789FF91
:1045C000050004D010F01EFB28460DF003FC2079F6
:1045D000800602D020680DF0FDFB0020206060689E
:1045E0006FF30800606070BD37B582B00546BDF856
:1045F0000C1005F067FE040011D40146284605F0B2
:104600009EFEBDF80C1000F07F00C1F30621884229
:1046100005D1A41C28680222204404A922E0FF201E
:10462000ADF800002846FFF7A3FD00B90220001DE9
:1046300084B22146284612F0FCF8002814D02868DD
:104640000222204403A9801FFFF79CFA2868022257
:10465000204404A9001FFFF795FA2868022220448D
:104660006946801EFFF78EFA05B030BD37B582B0BF
:104670000546BDF80C1005F025FE040011D40146D6
:10468000284605F05CFEBDF80C1000F07F00C1F379
:104690000621884205D1A41C28680222204404A9CE
:1046A00022E0FF20ADF800002846FFF761FD00B9C9
:1046B0000220001D84B22146284612F0BAF80028D4
:1046C00014D028680222204403A9801FFFF75AFA59
:1046D00028680222204404A9001FFFF753FA286823
:1046E000022220446946801EFFF74CFA05B030BD17
:1046F00037B582B00546BDF80C1005F0E3FD0400A7
:1047000011D40146284605F01AFEBDF80C1000F041
:104710007F00C1F30621884205D1A41C286801222C
:10472000204404A922E0FF20ADF800002846FFF74E
:104730001FFD00B90220C01C84B22146284612F099
:1047400078F8002814D028680222204403A9401FCA
:10475000FFF718FA28680122204404A9C01EFFF7B9
:1047600011FA2868022220446946801EFFF70AFADF
:1047700005B030BD37B582B00546BDF80C1005F068
:10478000A1FD040011D40146284605F0D8FDBDF86E
:104790000C1000F07F00C1F30621884205D1A41C53
:1047A00028680422204404A922E0FF20ADF800007C
:1047B0002846FFF7DDFC00B90220801D84B22146A7
:1047C000284612F036F8002814D028680222204427
:1047D00003A90838FFF7D6F928680422204404A961
:1047E000801FFFF7CFF92868022220446946801E07
:1047F000FFF7C8F905B030BD10B518210348FEF722
:104800003EFF03490120087010BD00007C0300201A
:10481000D40000204FF4B47190FBF1F201FB1200C0
:10482000002802DA00F5B47000B20E495A2802DA04
:1048300031F910007047A0F15A025A2A03D2C0F190
:10484000B40000B2F4E7A0F1B4025A2A01D210B2C7
:1048500002E0C0F5B47000B231F81000404200B27E
:10486000704700008CB701082DE9F04788B01D465D
:10487000109E92468946040007D0B9F1000F04D07B
:1048800016F0120F10D0002004E0002008B0BDE8A0
:10489000F087401C215C0A2904D00D2902D0002990
:1048A000F7D1F3E7401CF1E7B00701D547F618450B
:1048B0004FF000088DF81480204FCDF8108021E0D3
:1048C0000498CDF8188028B3002105AB06AACDE9DD
:1048D0000231CDE9006220442B465246494610F091
:1048E00067FC0699691A0DB2B0B1049908440490A6
:1048F00021780A290BD00D2909D0205C0A2812D072
:104900000D2810D00498205C08B1002DD8DC049844
:1049100068B110E00121D8E7049860B97A6804A969
:1049200020469047F3E70498401C0490EFE77A682C
:1049300004A9204690470498A8E70000E40000205E
:104940002DE9FF4F83B004464FF00000DDF848A08A
:10495000DDF84090208093460F00608047D0BBF187
:10496000000F44D05FEA8A7002D547F618401190D4
:104970000025A846BBF8086023E07819CDE900A01F
:104980005946119B069AFFF76FFF8044B4F9020065
:1049900006EB09010144B1F5004F28D230444844E8
:1049A0006080A8EB0501CDF800A05A46069B01984F
:1049B00000F022F8B4F90010814200DB08462080A4
:1049C0004546785D0028D8D15DB1781910F8010C02
:1049D0000A2801D00D2804D1618806EB090008449B
:1049E0006080B4F9020028B1A0EB0900608007B034
:1049F000BDE8F08F6680FAE72DE9FC5F1F46DDF821
:104A000030A091460E4605000CD0B9F1000F09D038
:104A10002878002807D00020044600908DF8040074
:104A20002EBB2BE00020BDE8FC9FDFF854806946D8
:104A30002846D8F80420904783460098D8F80420E8
:104A400028440021904780465FEACA7004D0594646
:104A500001A800F017F850B94246594648460AF0F6
:104A6000D5FB00B2002802DD2044384404B200988F
:104A7000B042DAD3002C01DDE01B04B22046D2E7BD
:104A8000E400002000230278232902D0012A0DD05F
:104A90000FE02AB10021012A04D0022A04D008E044
:104AA000012101E0017004E0017001E0202902D041
:104AB0000123184670470221F6E700002DE9F04770
:104AC0001E4614460D468246DDF8209015E000BFD4
:104AD0004FEA540808FB0657394650464A46904765
:104AE000002808DD44F30000C0EB540407EB060582
:104AF000A4F1010401E005DA4446002CE8D1204687
:104B0000BDE8F0873846FBE710B5074C0120207060
:104B10000648FEF791FD28B10421A068BDE81040C9
:104B200010F074BA0021F8E78C000020B8030020D0
:104B300010B5044690F83A00216B90B0820707D474
:104B4000228F3AB1A2F57F43FF3B1CD0521E228731
:104B5000228FC2B909B1820715D540222146684685
:104B6000FEF770FF21461448FEF739FE20460DF08F
:104B700031F9FFF7C9FF0398002802D001466846C3
:104B8000884710B010BD626B5242A2620029F8D073
:104B9000820702D4E26A5242A2624210521C62F3BD
:104BA000410084F83A00236AA269A3612262800767
:104BB00000D4E16B6162E4E7B803002070B5294DD1
:104BC000686810F0DBFA0646687880F001006870CB
:104BD0003AE00020287094F83A006978C0F3800227
:104BE0008A4235D061F3820084F83A00A06A8119C4
:104BF000002805DC002903DBA16809B120468847AD
:104C0000A06A8019A0621DD4616A884200DDA16299
:104C10002269214604F110000AB1904701E007F033
:104C2000D5FBE169814206D0E06162681AB1236870
:104C300001B218469047D4E90901814202DB2046BF
:104C4000FFF776FF287818B10748FEF7F5FC03E078
:104C500021460548FEF703FD0400BAD110F094FA8E
:104C6000686070BD8C000020B803002070B5044659
:104C7000806815460E4608B1FFF7F8FF626822B15A
:104C800029463046BDE8704010472368002B06D007
:104C900003482A4631460068BDE87040184770BD99
:104CA000FC0000202DE9F041454C20681C300FF03D
:104CB000A9FF444F20680021FA681C300FF0D5FF8F
:104CC000002008F02BFE00EBC00101EB00104FF4B8
:104CD000A076A0255030B0420ADB002008F01EFE6E
:104CE00000EBC00101EB0010503090FBF5F000E04C
:104CF000012002B2206800211C300FF0C0FF2068A4
:104D0000012200211C300FF0B5FF206820300FF089
:104D100079FF97F82000800701D52B4800E02B4849
:104D200007F0D5FD02462068002120300FF09DFFDE
:104D3000002008F0F3FD00EBC00101EB0010503043
:104D4000B0420ADB002008F0E9FD00EBC00101EBF6
:104D50000010503090FBF5F000E0012002B2206816
:104D6000002120300FF08BFF20680122002120302D
:104D70000FF080FF206824300FF044FF206847F6D2
:104D8000FF72002124300FF0BBFF20680022114683
:104D900024300FF0ABFF20680022114624300FF0C2
:104DA00091FF20680022114624300FF095FF206803
:104DB000BDE8F0410022114624300FF092BF000000
:104DC0000001002008450020D9D7D4004D494500F6
:104DD0002DE9F843534C206828300FF013FF20686A
:104DE00047F6FF784246002128300FF089FF2068FF
:104DF000FF22002128300FF014FF4B4D95F82000C2
:104E0000800701D5494800E0494807F060FD0246A7
:104E10002068002128300FF0FFFE464E95F8200054
:104E20003268800703D5444807F051FD02462068E8
:104E3000002128300FF0B1FF20680021EA682830F7
:104E40000FF02CFFE889ADF8000020680421009ADB
:104E500028300FF023FF20680022114628300FF081
:104E600022FF20687F22022128300FF01CFF95F8D6
:104E7000200080064FF0000011D408F04FFD5027AD
:104E800007EB4000B0F5A07F08DB002008F046FDEE
:104E900007EB4000A02190FBF1F000E0012002B2FE
:104EA0002068002128300FF008FF206800221146FA
:104EB00028300FF06DFF20684C22002128300FF0C1
:104EC00062FF20682C300FF09DFE2068FF22002139
:104ED0002C300FF0A6FE2068424600212C300FF047
:104EE0000FFF20680021EA682C300FF095FE40F695
:104EF000880007F0F8FC0246206820212C300FF0D3
:104F00008BFE95F820007268800703D50B4807F0E8
:104F1000DEFC02462068BDE8F84300212C300FF08B
:104F20003CBF00000001002008450020D9D7D40074
:104F30004D49450044B801084F4031004F40410001
:104F40002DE9F84FFB4E30680FF05CFEFF22002188
:104F500030680FF066FEF84F97F82000800701D503
:104F6000F64800E0F64807F0B2FC0246002130683F
:104F70000FF052FE97F82000F24D800701D5F2485D
:104F800000E0284607F0A3FC0246002130680FF03D
:104F9000DFFE97F82000800701D5EB4800E02846A7
:104FA00007F095FC0246002130680FF0F6FE97F8F6
:104FB00020003468800701D5E34800E0284607F068
:104FC00086FC024648F28A012046FFF70DFB306856
:104FD00048F28B01FA68FFF707FB00217A69306815
:104FE0000FF0E0FE3068001D0FF00CFE002008F00E
:104FF00095FC502505EBC0004FF4A079A02448454E
:1050000007DB002008F08AFC05EBC00090FBF4F001
:1050100000E0012002B230680021001D0FF070FE98
:105020003068FF220021001D0FF0FBFD97F82000E3
:105030006FF07F4B800701D5584600E0C34807F06A
:1050400046FC024630680021001D0FF0E5FD97F890
:105050002000800701D5BE4800E0BE4807F037FCBD
:10506000024630680021001D0FF0E0FD97F8200097
:10507000800605D430680221FA68001D0FF0D6FDC5
:10508000F889ADF800003068B8460421009A001D88
:105090000FF0CCFD002008F041FC05EB40004F462E
:1050A000B84207DB002008F039FC05EB400090FB1C
:1050B000F4F000E0012002B230680021001D0FF082
:1050C000C4FD306801223321001DFFF7CFFA98F8A4
:1050D0002000800701D59C4800E0584607F0F7FB08
:1050E000024630680021001D0FF032FE30680021BA
:1050F000D8F81420001D0FF055FE98F82000800706
:1051000001D5914800E0584607F0E1FB02463068BF
:105110000021001D0FF041FE98F82000800701D506
:10512000894800E0584607F0D2FB0246306800216B
:10513000001D0FF094FD98F82000C146800701D5AE
:10514000814800E0584607F0C2FB02463068002163
:10515000B046001D0FF089FD306801220021001DBE
:105160000FF08DFD002008F02BFC01284FF000000F
:105170000DD808F0D3FBC0EB00105030B84218DB5C
:10518000002008F0CBFBC0EB001050300EE008F020
:10519000C5FBC0EB001005EB4000B84209DB002066
:1051A00008F0BCFBC0EB001005EB400090FBF4F6F0
:1051B00000E00126002008F0B1FB05EB4000B842FA
:1051C00007DB002008F0AAFB05EB400090FBF4F0A1
:1051D00000E00120304402B2D8F800000021001D98
:1051E0000FF07AFD002008F0EBFB01284FF00000E3
:1051F0000DD808F093FBC0EB00105030B84218DB1C
:10520000002008F08BFBC0EB001050300EE008F0DF
:1052100085FBC0EB001005EB4000B84209DB002025
:1052200008F07CFBC0EB001005EB400090FBF4F6AF
:1052300000E00126002008F071FB05EB4000B842B9
:1052400007DB002008F06AFB05EB400090FBF4F060
:1052500000E00120304402B2D8F800000021001D17
:105260000FF03FFD002008F0ABFB01284FF00000DD
:105270000DD808F053FBC0EB00105030B84218DBDB
:10528000002008F04BFBC0EB001050300EE008F09F
:1052900045FBC0EB001005EB4000B84209DB0020E5
:1052A00008F03CFBC0EB001005EB400090FBF4F66F
:1052B00000E00126002008F031FB05EB4000B84279
:1052C00007DB002008F02AFB05EB400090FBF4F020
:1052D00000E00120304402B2D8F800000021001D97
:1052E0000FF004FD002008F06BFB01284FF00000D8
:1052F0000DD808F013FBC0EB00105030B8422BDB88
:10530000002008F00BFBC0EB001050300EE008F05E
:1053100005FBC0EB001005EB4000B8421CDB002091
:1053200008F0FCFAC0EB001005EB400090FBF4F62F
:1053300013E000000001002008450020F3EFEA0020
:105340005A4B4400ECE9E700423E3B0073625800D0
:10535000E3DDD600978A80000126002008F0DEFAFF
:1053600005EB4000B84207DB002008F0D7FA05EB58
:10537000400090FBF4F000E00120304402B2D8F885
:10538000000000214646001D0FF09CFC002008F0A4
:1053900017FB01284FF000000DD808F0BFFAC0EB52
:1053A00000105030B84218DB002008F0B7FAC0EB0C
:1053B000001050300EE008F0B1FAC0EB001005EB21
:1053C0004000B84209DB002008F0A8FAC0EB00104A
:1053D00005EB400090FBF4F000E0012002B23068E1
:1053E0000021001D0FF073FC306800221146001DE3
:1053F0000FF0CEFC306839220021001D0FF0C3FCF5
:1054000030680C300FF0FEFB316801F10C00091D13
:105410000FF024FB99F82000800701D5FE4800E03A
:10542000FE4807F054FA024630680021B0460C30BE
:105430000FF0F2FB99F820004E46800701D5F8489E
:1054400000E0F84807F043FA0246D8F800000021CF
:105450000C300FF0EBFB96F82000DFF8CCA38007B0
:1054600001D5F24800E0504607F031FA0246D8F87C
:10547000000000210C300FF06BFC96F82000B146C4
:10548000800701D5E94800E0504607F020FA0246BF
:10549000D8F80000002146460C300FF07EFC99F849
:1054A0002000800701D5E14800E0504607F00FFAE0
:1054B000024630680021B0460C300FF0D0FB99F85E
:1054C00020004E46800701D5D84800E0504607F03E
:1054D000FEF90246D8F8000000210C300FF0C5FBA1
:1054E000D8F8000008300FF08DFB96F82000B14688
:1054F000800701D5CE4800E0CE4807F0E8F9024623
:10550000D8F800001021464608300FF085FB3068BF
:10551000C8460121D9F80C2008300FF07DFB33215B
:10552000D8F80C0007F08AF90246306811210830DB
:105530000FF072FB98F82000800701D5584600E074
:10554000BD4807F0C4F902463068202108300FF04A
:1055500063FB30680022012108300FF076FB332115
:10556000D8F80C0007F06AF90246306812210830BA
:105570000FF05CFB98F82000DFF8C0A2800704D58C
:1055800040F6CC4007F0AFF902E0504607F09FF933
:1055900002463068102108300FF048FB98F82000D0
:1055A000800701D5A64800E0504607F090F9024672
:1055B0003068012108300FF039FB98F82000C1460F
:1055C000800701D59E4800E0504607F080F902466A
:1055D00030681121B04608300FF028FB99F8200000
:1055E0004E46800701D5974800E0504607F06FF916
:1055F0000246D8F80000202108300FF017FB96F87B
:105600002000800701D58E4800E0584607F05FF97A
:105610000246D8F80000102108300FF099FB5846D8
:1056200007F055F90246D8F80000012108300FF0C4
:105630008FFB584607F04BF90246D8F800001121BD
:1056400008300FF085FB96F82000B146800740F641
:10565000AA2A01D5504601E040F6991007F043F917
:105660000246D8F800002021464608300FF070FBB3
:1056700099F82000C846800701D5714800E05846D7
:1056800007F025F902463068102108300FF0E7FADC
:10569000584607F01CF902463068012108300FF027
:1056A000DEFA584607F013F9024630681121083037
:1056B0000FF0D5FA98F82000800701D5504601E098
:1056C00040F6991007F00FF90246306820210830A3
:1056D0000FF0C5FA30682922002108300FF04EFB88
:1056E000306810300FF08EFA306847F6FF720021F4
:1056F00010300FF005FB3068FF22002110300FF052
:1057000090FA98F82000C146800701D5584600E07D
:10571000494807F0DCF8024630680021B0461030F6
:105720000FF07AFA99F820004E46800705D55846C2
:1057300007F0CDF80146332204E03F4807F0C7F8F0
:1057400001464C22F06807F0B6F90246D8F800008E
:10575000102110300FF060FAD8F80000B146012196
:10576000F26810300FF058FA4C21F06807F066F834
:105770000246D8F80000112110300FF04DFA96F8CB
:105780002000800701D5584600E02B4807F09FF81D
:105790000246D8F800002021464610300FF03CFAAF
:1057A00099F8200040F6880A800702D540F6CC40E0
:1057B00000E0504607F097F8024630682121B046D5
:1057C00010300FF029FAD8F800004E460021D9F821
:1057D0000C2010300FF02AFAD8F800001021F268DF
:1057E00010300FF023FA96F82000800703D55046BA
:1057F00007F079F802E00B4807F069F80246D8F89C
:1058000000002021464610300FF010FA002008F06A
:1058100085F805EB400017E0D9D7D4004D49450085
:10582000EDE7DF0040404000ADA8A5004F4031004B
:10583000EEEEEE00574F4900736258006E655F0050
:10584000423E3B00E3DDD600BA46504507DB002070
:1058500008F064F805EB400090FBF4F000E0012054
:1058600002B23068002110300FF0EFF930680022EA
:10587000012110300FF0DFF999F820004F46800722
:1058800001D5FE4800E0584607F021F8024630688E
:10589000002110300FF05CFA97F82000800701D546
:1058A000F64800E0584607F012F80246306810212A
:1058B00010300FF04DFAD846584607F008F8024667
:1058C0003068012110300FF043FA404606F0FFFF28
:1058D00002463068112110300FF03AFADFF8A09339
:1058E000484606F0F4FF02463068202110300FF0E1
:1058F0002FFA97F82000800701D5E04800E04046E5
:1059000006F0E5FF02463068002110300FF0A7F9DD
:1059100097F82000800701D5D84800E0404606F0FF
:10592000D6FF02463068102110300FF098F940463B
:1059300006F0CDFF02463068102110300FF08FF9CD
:10594000404606F0C4FF02463068112110300FF0C7
:1059500086F9484606F0BBFF024630682021103029
:105960000FF07DF997F82000800701D5C34800E0CB
:10597000404606F0ACFF02463068002110300FF0C0
:105980000CFA97F82000800701D5BC4800E040469B
:1059900006F09DFF02463068102110300FF0FDF92F
:1059A000404606F094FF02463068012110300FF0A7
:1059B000F4F9404606F08BFF0246306811211030A2
:1059C0000FF0EBF9B846484606F081FF0246306812
:1059D000202110300FF0E1F9002007F09FFF00EBCD
:1059E000800005EBC0005746B84209DB002007F0F5
:1059F00095FF00EB800005EBC00090FBF4F000E0A9
:105A0000012002B23068002110300FF065F900204B
:105A100007F084FF00EB800005EBC000B84209DB13
:105A2000002007F07BFF00EB800005EBC00090FB3F
:105A3000F4F000E0012002B23068002110300FF0D5
:105A400050F9002007F06AFFC0EB00105030B84258
:105A500008DB002007F062FFC0EB0010503090FB25
:105A6000F4F000E0012002B23068002110300FF0A5
:105A70003DF9002007F052FFC0EB00105030B84253
:105A800008DB002007F04AFFC0EB0010503090FB0D
:105A9000F4F000E0012002B23068002110300FF075
:105AA00011F9002007F03AFF00EB800005EB8000C1
:105AB000B84209DB002007F031FF00EB800005EB66
:105AC000800090FBF4F000E0012002B23068002179
:105AD00010300FF0FCF898F8200080064FF000001E
